:020000040800F2
:1000000020070020910F0008D9080008DB0800082D
:10001000DF080008E3080008E70800080000000007
:10002000000000000000000000000000EB080008D5
:10003000ED08000800000000EF080008F1080008C3
:10004000AB0F0008AB0F0008AB0F0008AB0F0008A8
:10005000AB0F0008AB0F0008AB0F0008AB0F000898
:10006000AB0F0008AB0F0008AB0F0008AB0F000888
:10007000AB0F0008AB0F0008AB0F0008AB0F000878
:10008000AB0F0008AB0F0008AB0F0008AB0F000868
:10009000AB0F0008AB0F0008AB0F0008AB0F000858
:1000A000AB0F0008AB0F0008AB0F0008AB0F000848
:1000B000AB0F0008AB0F0008AB0F0008AB0F000838
:1000C000AB0F0008AB0F0008AB0F0008AB0F000828
:1000D000AB0F0008F308000813090008AB0F000875
:1000E000AB0F0008AB0F0008AB0F0008AB0F000808
:1000F000AB0F0008AB0F0008AB0F0008AB0F0008F8
:10010000AB0F0008AB0F0008AB0F0008AB0F0008E7
:10011000AB0F0008AB0F0008AB0F0008AB0F0008D7
:10012000AB0F0008AB0F0008AB0F0008AB0F0008C7
:1001300000F002F800F042F80AA090E8000C8244B7
:100140008344AAF10107DA4501D100F037F8AFF294
:10015000090EBAE80F0013F0010F18BFFB1A43F0A5
:1001600001031847441D0000641D0000103A24BF1D
:1001700078C878C1FAD8520724BF30C830C144BF0C
:1001800004680C607047000000230024002500264E
:10019000103A28BF78C1FBD8520728BF30C148BFEA
:1001A0000B607047642901F07185732901F019868D
:1001B000002070471FB51FBD10B510BD01F044FEF3
:1001C0001146FFF7F7FF00F021FA01F062FE03B4D9
:1001D000FFF7F2FF03BC00F044FD0000002009E03F
:1001E000002101E04A1C91B242F210729142F9DB07
:1001F000421C90B2B0F57A7FF2DB704710B504462E
:100200002146B84801F00EFC00BF8021B54801F03E
:1002100077FC0028F9D010BD2DE9F04781460C4647
:100220009246F520FFF7EAFF0027002508E0AE49D7
:10023000485DFFF7E3FFAC48405D4740681CC5B22E
:100240004D45F4DB3846FFF7D9FFF520FFF7D6FF21
:100250000020A6490870A6480AFB00F801E0A8F1B2
:100260000108A2480078A04202DAB8F1000FF6D1E6
:100270009E480078A04202D00820BDE8F0879D4843
:100280000078F52801D00120F7E7601E9949085C45
:10029000F52801D00120F0E7964840789249097886
:1002A000884201D00120E8E70027012604E09148B8
:1002B000805D4740701CC6B28C480078401EB0423A
:1002C000F5DC0FB10120D8E70020D6E770B5044671
:1002D0000A20854908700020487008468470002074
:1002E000C87008710A2208210520FFF795FF05460E
:1002F00015B98048007970BDFF20FCE710B50920D2
:1003000079490870002048708870C87008710A2206
:1003100008210520FFF780FF04462CB975480079B5
:1003200010B97448C07810BDFF20FCE710B5282034
:100330006D4908700020487088700120C870002046
:1003400008710A2208210520FFF766FF04462CB930
:100350006848007910B96748C07810BDFF20FCE7F5
:1003600070B504462820604908700020487008468F
:1003700084700020C87008710A2208210520FFF748
:100380004BFF05462DB95B48007910B95948C07834
:1003900070BDFF20FCE710B52E20534908700020E7
:1003A000487088700120C870002008710A22082156
:1003B0000520FFF731FF04462CB94E48007910B9EB
:1003C0004C48C07810BDFF20FCE770B505460E46CE
:1003D000FFF794FF0446282C01DB042070BD0120A8
:1003E000414908700020487008468570C67000209A
:1003F0000871C82208210520FFF70EFF044614BB30
:100400003C480079F8B9022037490870C822082111
:100410000520FFF701FF04469CB93648007980B9F2
:10042000032031490870C82208210520FFF7F4FE97
:10043000044624B92F48007908B90020CEE70120EE
:10044000CCE70120CAE70120C8E710B505202649FE
:100450000870002048708870C87008713222082126
:100460000520FFF7D9FE04462CB92248007910B9BF
:10047000FFF7B4FE01E0FFF7B1FE10BD0146012910
:1004800003D0022901D0032901D1012070470020A7
:10049000FCE710B50C2014490870002048708870E3
:1004A000C8700871962208210520FFF7B5FE0446A2
:1004B0005CB910490879FFF7E1FF012805D10D4823
:1004C00000790D490870002010BD0A480079052800
:1004D00000D1F9E707480079082800D1F4E70F2098
:1004E000F2E7000000440040A500002000000020CA
:1004F000C0D401009C0000200600002010B500BF01
:1005000000F074FCDD4800780C2802D10020DB49A3
:100510000870DB48407A0028F2D1D948C07A401CE4
:10052000D849086010BD002009E0002101E04A1C04
:1005300091B242F210729142F9DB421C90B2B0F5D6
:100540007A7FF2DB7047002109E0002201E0531CB2
:100550009AB242F210739A42F9DB4B1C99B2814273
:10056000F3D37047002107E0002201E0531C9AB248
:100570000A2AFBDB4B1C99B28142F5D3704710B5B8
:10058000044608E02178C04801F04CFA641C4FF49E
:100590002F70FFF7E7FF20780028F3D110BD10B5CA
:1005A0004FF47A70FFF7DEFFFF21B74801F03AFA07
:1005B0004FF47A70FFF7D6FFFF21B34801F032FA0B
:1005C0004FF47A70FFF7CEFFFF21AF4801F02AFA0F
:1005D0004FF47A70FFF7C6FF10BD08B501211C204B
:1005E00001F080F843F6FF70ADF8000010208DF8A0
:1005F000030003208DF802006946A44800F0B6FD10
:1006000043F6FF71A14800F05EFE08BD00F011FA4C
:10061000FFF7E3FF4FF4E1314FF4165000F0EDFA2D
:100620009BA001F0C9FAFFF769FFFFF767FE0446D8
:1006300021469FA001F0C0FA43F6FF71934800F0F5
:1006400042FE4FF47A70FFF78DFF15E19B4800786A
:100650000128FAD100209949087099480078452866
:1006600078D018DC342840D00CDC232825D004DCDA
:1006700021281AD022282AD11BE0302828D033285C
:10068000F9D11EE0412836D042284BD0432855D01E
:100690004428F0D15FE04638092818D2DFE800F09E
:1006A000737F8B97A5B3C1CFDD000120854908700A
:1006B00000BF02208349087000BF032081490870F1
:1006C00000BFFFF71BFF6F48006800F0EBFBD2E0B4
:1006D00000F0A4FB30B97C497CA001F06DFAFFF773
:1006E0005EFF00E000BF00BFC5E000207849087051
:1006F00078490870BFE00121644800F0E6FDC82099
:10070000FFF721FF0121614800F0DDFD01215F4875
:1007100000F0D9FD01215D4800F0D5FDC820FFF7AC
:1007200012FFA8E00221594800F0CFFDC820FFF7D2
:100730000AFF0221554800F0C6FD9CE00421534801
:1007400000F0C3FDC820FFF7FEFE04214F4800F073
:10075000BAFD90E00BE008214C4800F0B6FDC8203F
:10076000FFF7F1FE0821494800F0ADFD83E01021BC
:10077000464800F0AAFDC820FFF7E5FE10214348D7
:1007800000F0A1FD77E02021404800F09EFDC82048
:10079000FFF7D9FE20213D4800F095FD6BE0402198
:1007A0003A4800F092FDC820FFF7CDFE40213748BF
:1007B00000F089FD5FE08021344800F086FDC8200C
:1007C000FFF7C1FE8021314800F07DFD53E04FF47A
:1007D00080712E4800F079FDC820FFF7B4FE4FF479
:1007E00080712A4800F06FFD45E04FF40071274802
:1007F00000F06BFDC820FFF7A6FE4FF40071234800
:1008000000F061FD37E04FF48061204800F05DFDAD
:10081000C820FFF798FE4FF480611C4800F053FD9C
:1008200029E04FF40061194800F04FFDC820FFF7A0
:100830008AFE4FF40061154800F045FD1BE04FF4BF
:100840008051124800F041FDC820FFF77CFE4FF4B4
:1008500080510E4800F037FD0DE04FF400510B4879
:1008600000F033FDC820FFF76EFE4FF4005107483B
:1008700000F029FD00BF00BFE8E6000050000020A6
:10088000AE000020080000200038014000100140A8
:100890005465737420556172742046696E67657281
:1008A0007072696E74205265616465720D0A000091
:1008B000557365723A25640D0A0000000D00002092
:1008C000050000200C00002015000020257300000A
:1008D0000700002006000020704700BFFEE700BFB1
:1008E000FEE700BFFEE700BFFEE7704770477047B6
:1008F000704710B540F22551104801F017F938B192
:100900000E4801F093F80E49087001200D49087057
:1009100010BD10B540F225510B4801F007F958B150
:10092000094801F083F80949094A127888540848AF
:100930000078401C0649087010BD000000380140D6
:10094000050000200D000020004400409C00002015
:10095000000000200CB50020019000906C48006859
:1009600040F480306A49086000BF6948006800F4BC
:10097000003000900198401C0190009818B901982F
:10098000B0F5A06FF1D16248006800F4003010B1FA
:100990000120009001E0002000900098012843D140
:1009A0005C48006840F010005A490860084600683A
:1009B00020F0030008600846006840F0020008606C
:1009C00053484068524948600846406848600846B5
:1009D000406840F4806048600846406820F47C101D
:1009E00048600846406840F4E810486008460068DF
:1009F00040F08070086000BF4548006800F000705B
:100A00000028F9D04248406820F00300404948607F
:100A10000846406840F00200486000BF3C4840681B
:100A200000F00C000828F9D10CBD10B5FFF792FFBB
:100A300010BD10B53648006840F001003449086028
:100A40000846406834490840314948600846006813
:100A5000324908402E4908600846006820F480208A
:100A600008600846406820F4FE0048604FF41F000C
:100A70008860FFF7DAFF4FF000602949086010BD79
:100A800010B5002100200022214B5B6803F00C010F
:100A900021B1042906D0082928D107E0214B224C96
:100AA000236027E01F4B204C236023E0184B5B683A
:100AB00003F47010164B5B6803F48032022303EBDF
:100AC000904022B9194B4343174C23600DE0104B63
:100AD0005B6803F4003323B1144B4343124C23608F
:100AE00003E0104B4343104C236003E00D4B0E4CCE
:100AF000236000BF00BF064B5B68C3F303130C4CBD
:100B0000E15C094B1B68CB40074C236010BD000023
:100B100000100240002002400000FFF8FFFFF6FE38
:100B200008ED00E000127A003800002000093D00C6
:100B30003C00002010B50121042000F0D3FD01216C
:100B4000880300F0CFFD0121480400F0D8FD10BD5E
:100B500008B518208DF803004FF40070ADF80000C0
:100B600003208DF802006946474800F0FFFA042090
:100B70008DF803000002ADF800006946424800F01D
:100B8000F5FA18208DF803000420ADF800000320CA
:100B90008DF8020069463C4800F0E8FA04208DF820
:100BA00003000820ADF800006946374800F0DEFA7F
:100BB00008BD08B54FF4A06000F00AFA25208DF8B2
:100BC000000002208DF8010000208DF802000120B5
:100BD0008DF80300684600F000FA26208DF800002A
:100BE00002208DF8010000208DF8020001208DF810
:100BF0000300684600F0F1F908BD7FB505460C46D4
:100C0000FFF798FF00950020ADF80600ADF804004E
:100C1000ADF80800ADF80C000C20ADF80A006946EC
:100C20001A4800F006FE012240F22551174800F054
:100C300098FE0121154800F088FE0094694614488A
:100C400000F0F7FD012240F22551114800F089FE25
:100C500001210F4800F079FEFFF77AFFFFF7A9FFA7
:100C60007FBD014600BF704770B504460D46E1B236
:100C7000064800F0D7FE00BF8021044800F040FF86
:100C80000028F9D0204670BD00080140003801401E
:100C900000440040002107E0002200E0521C42F224
:100CA00010739A42FAD3491C8142F5D3704710B5AC
:100CB00004462146AB4800F0B5FE00BF8021A9489C
:100CC00000F01EFF0028F9D010BD10B5002400BFB1
:100CD00005E0A549085DFFF7EAFF601CC4B2062CD9
:100CE000F7DB002405E0A149085DFFF7E0FF601C89
:100CF000C4B2062CF7DB10BD10B5002400BF05E020
:100D00009949085DFFF7D3FF601CC4B2062CF7DBDE
:100D1000002405E09649085DFFF7C9FF601CC4B2D6
:100D2000072CF7DB10BD10B5002400BF05E08E498D
:100D3000085DFFF7BCFF601CC4B2062CF7DB002483
:100D400005E08C49085DFFF7B2FF601CC4B2072CB8
:100D5000F7DB10BD10B5002400BF05E08249085D37
:100D6000FFF7A5FF601CC4B2062CF7DB002405E0EA
:100D70008149085DFFF79BFF601CC4B2062CF7DBBE
:100D800010BD2DE9F0470546002400260027A046A7
:100D9000A146A24600BFC5F3072607F10E0000EBEF
:100DA000060800BF4FEA182900BF05E06E49085D3C
:100DB000FFF77DFF601CC4B2062CF7DB002405E0C2
:100DC0006E49085DFFF773FF601CC4B2052CF7DBAA
:100DD0003046FFF76CFF3846FFF769FF4846FFF7DC
:100DE00066FF5046FFF763FFBDE8F08710B50024AB
:100DF00004E05D49085DFFF75AFF641C062CF8D338
:100E0000002404E05E49085DFFF751FF641C062CD6
:100E1000F8D34FF47A70FFF73DFF10BD10B500BF57
:100E2000FFF753FF41F28830FFF734FF5548007851
:100E30000C2802D10020534908705348407A0028FA
:100E4000EED14FF47A70FFF725FFFFF755FF4FF40F
:100E50007A70FFF71FFF4B4800780C2802D1002062
:100E600048490870002404E03F49085DFFF71FFF70
:100E7000641C062CF8D3002404E04449085DFFF705
:100E800016FF641C0B2CF8D34FF47A70FFF702FFA7
:100E90003C4800780C2802D100203A4908703A48B2
:100EA000407A10BD10B5044600BFFFF70EFF41F2B7
:100EB0008830FFF7EFFE334800780C2802D100207D
:100EC000304908703048407A0028EED14FF47A70EB
:100ED000FFF7E0FEFFF710FF4FF47A70FFF7DAFE3E
:100EE000284800780C2802D100202649087000BF4D
:100EF000FFF7EBFE41F28830FFF7CCFE2148007887
:100F00000C2802D100201F4908701F48407A002891
:100F1000EED14FF47A70FFF7BDFEFFF704FF4FF4F8
:100F20007A70FFF7B7FE174800780C2802D100202E
:100F300014490870FFF70EFF4FF47A70FFF7AAFE0E
:100F4000104800780C2802D100200E490870204675
:100F5000FFF717FF0B4800780C2802D10020094941
:100F6000087010BD004400405100002057000020D0
:100F70005D000020640000206B0000207100002054
:100F80007600002050000020AE0000207C000020F1
:100F90000948804709480047FEE7FEE7FEE7FEE70D
:100FA000FEE7FEE7FEE7FEE7FEE7FEE70448054949
:100FB000054A064B70470000330A0008310100085B
:100FC0002001002020070020200300202003002013
:100FD00031490143314A1160704770B50021002347
:100FE0000F22C47804B32D4C246804F4E064C4F5E3
:100FF000E064210AC1F10403CA40447804FA03F111
:101000008478144021430901254C0678A1550478C1
:1010100004F01F050124AC4005786D11AD0005F109
:10102000E025C5F8004109E0047804F01F0501241B
:10103000AC401C4D0678761145F8264070BD1A4A22
:101040000A400243154B1B1F1A60704739B1134AFF
:10105000121D12680243114B1B1D1A6006E00F4A55
:10106000121D126882430D4B1B1D1A607047042825
:1010700008D14FF0E021096941F004014FF0E0226E
:10108000116107E04FF0E021096921F004014FF000
:10109000E0221161704700000000FA050CED00E04D
:1010A00000E400E080E100E080FFFF1F10B504468F
:1010B000CC48844208D10121042000F02DFB0021FE
:1010C000042000F029FB46E0C748844208D10121F2
:1010D000082000F021FB0021082000F01DFB3AE071
:1010E000C248844208D10121102000F015FB0021E4
:1010F000102000F011FB2EE0BD48844208D10121F0
:10110000202000F009FB0021202000F005FB22E058
:10111000B848844208D10121402000F0FDFA0021A6
:10112000402000F0F9FA16E0B348844208D10121CA
:10113000802000F0F1FA0021802000F0EDFA0AE0B2
:10114000AE48844207D10121801500F0E5FA002164
:10115000A01500F0E1FA10BD10B50121084600F01D
:10116000DBFA0021012000F0D7FA10BD2DE9F04193
:10117000024600250026002000230024002791F8C5
:1011800003C00CF00F0591F803C00CF0100CBCF17B
:10119000000F03D091F802C04CEA050591F800C099
:1011A000BCF1000F31D0146800202BE04FF0010C8F
:1011B0000CFA00F3B1F800C00CEA03069E4220D1FD
:1011C00083004FF00F0C0CFA03F7BC4305FA03FC45
:1011D0004CEA040491F803C0BCF1280F06D14FF08B
:1011E000010C0CFA00FCC2F814C00AE091F803C02C
:1011F000BCF1480F05D14FF0010C0CFA00FCC2F80D
:1012000010C0401C0828D1D31460B1F800C0BCF154
:10121000FF0F34DD546800202EE000F1080C4FF081
:10122000010808FA0CF3B1F800C00CEA03069E426C
:1012300021D183004FF00F0C0CFA03F7BC4305FAE1
:1012400003FC4CEA040491F803C0BCF1280F05D15B
:1012500000F1080C08FA0CF8C2F8148091F803C0E9
:10126000BCF1480F07D100F1080C4FF0010808FA53
:101270000CF8C2F81080401C0828CED35460BDE89A
:10128000F0814FF6FF710180022181700421C1704D
:1012900070470246002093680B400BB1012000E02C
:1012A000002070470146886880B2704702460020DF
:1012B000D3680B400BB1012000E0002070470146CD
:1012C000C86880B2704701617047416170470AB1D8
:1012D000016100E041617047C16070474FF48032A6
:1012E0000A43826181618261826982697047024634
:1012F0000020434B18684FF68073184040EA0210F4
:1013000008433F4B186070473E49C8617047F0B5CD
:101310000A46002300240021002500F00046B6F113
:10132000004F02D1364EF16901E0354E7168C0F3CD
:10133000034583B200F44016B6F5401F08D121F0F2
:1013400070612F4E766826F070662D4F7E6012E039
:1013500000F48016B6F5801F06D1032606FA05F4C0
:10136000A14341F0706106E0460D360103FA06F62E
:10137000B14341F0706122B1460D360103FA06F621
:10138000314300F00046B6F1004F02D11C4EF1612E
:1013900001E01B4E7160F0BD30B500228B071C0FC1
:1013A0000F2303FA04F2164B08338C1053F8243041
:1013B0009343134C08348D1044F8253023468C1089
:1013C00053F824308C07240F00FA04F423430C4C08
:1013D00008348D1044F8253030BD0A49DC310860EE
:1013E0007047000000080140000C0140001001405F
:1013F0000014014000180140001C01400020014081
:101400000000014000002042DF48006840F0010079
:10141000DD49086008464068DC490840DA49486010
:1014200008460068DA490840D7490860084600685D
:1014300020F4802008600846406820F4FE004860E0
:101440004FF41F0088607047CF49096821F480314C
:10145000CD4A11601146096821F480211160B0F570
:10146000803F03D0B0F5802F0ED106E0C649096851
:1014700041F48031C44A116007E0C349096841F46E
:10148000A021C14A116000E000BF00BF704710B545
:1014900001460022002300204A11012A02D1BA4C41
:1014A000236806E0022A02D1B74C236A01E0B64C59
:1014B000636A01F01F02012494401C400CB101201A
:1014C00000E0002010BD38B5002000900024002569
:1014D00000BF3120FFF7DBFF05460098401C00905D
:1014E0000098B0F5A06F01D0002DF2D03120FFF7A9
:1014F000CEFF08B1012400E00024204638BD01469B
:101500000020A14A106820F0F80040EAC1001060F5
:101510007047A04908607047024600209A4B5868FF
:1015200020F47C1042EA01031843974B586070473F
:1015300098490866704701460020934A506820F099
:1015400003000843506070478F48406800F00C006B
:101550007047014600208C4A506820F0F000084394
:101560005060704701460020874A506820F4E060D0
:1015700008435060704701460020834A506820F4B9
:10158000605040EAC1005060704729B17E4A527AEB
:1015900002437D4B5A7204E07B4A527A82437A4B73
:1015A0005A7270477B49D831086070470146002065
:1015B000754A506820F4404008435060704700214D
:1015C000714A20321170704A82F82010012802D02E
:1015D00004280AD104E001216B4A2032117005E091
:1015E0000521694A2032117000E000BF00BF70473A
:1015F0006949086070476449096A0143624A116297
:101600007047654944390860704730B500210022B1
:10161000002400235C4D6D6805F00C0121B1042904
:1016200005D0082923D105E05C4D056022E05B4D23
:1016300005601FE0544D6D6805F47012524D6D68E1
:1016400005F48034022505EB92421CB9544D5543F4
:1016500005600BE04C4D6D6805F400351DB1504D33
:101660005543056002E04D4D5543056002E04B4D8A
:10167000056000BF00BF444D6D6805F0F001090929
:10168000484D6B5C0568DD4045603F4D6D6805F475
:10169000E061090A434D6B5C4568DD4085603A4D69
:1016A0006D6805F46051C90A3E4D6B5C4568DD40CC
:1016B000C560354D6D6805F44041890B3A4D6B5C52
:1016C000C568B5FBF3F5056130BD29B12E4A5269F5
:1016D00002432D4B5A6104E02B4A526982432A4B44
:1016E0005A61704729B1284A92690243264B9A6190
:1016F00004E0254A92698243234B9A61704729B1DD
:10170000214AD2690243204BDA6104E01E4AD269C1
:1017100082431D4BDA61704729B11B4AD2680243EC
:10172000194BDA6004E0184AD2688243164BDA603B
:10173000704729B1144A12690243134B1A6104E03D
:10174000114A12698243104B1A617047124940399D
:10175000086070470F49C86470470B49C8717047EB
:101760000948406A40F08070074948627047014666
:101770000020054A92680A400AB1012000E00020DA
:101780007047014988727047001002400000FFF85E
:10179000FFFFF6FE000042428004424200127A003F
:1017A00000093D00870000209700002010B5044686
:1017B000FB48844209D101218803FFF7ADFF0021D6
:1017C0004FF48040FFF7A8FF32E0F648844209D189
:1017D00001214804FFF7ADFF00214FF40030FFF76F
:1017E000A8FF25E0F048844209D101218804FFF7D1
:1017F000A0FF00214FF48020FFF79BFF18E0EB488B
:10180000844209D10121C804FFF793FF00214FF45E
:101810000020FFF78EFF0BE0E548844208D101214C
:101820000805FFF786FF00214FF48010FFF781FFC6
:1018300010BD2DE9F04786B005460E460024A246AD
:1018400000BFA1460027B08900B100BF2F462C8AF7
:101850004CF6FF700440F08804432C82AC894EF6AD
:10186000F3100440B0883189084371890843044368
:10187000AC81AC8A4FF6FF400440B0890443AC828F
:1018800001A8FFF7C2FEC648874202D1DDF810A0CA
:1018900001E0DDF80CA0A88900F4004040B10AEB9B
:1018A000CA0000EB0A1031684900B0FBF1F807E00C
:1018B0000AEBCA0000EB0A1031688900B0FBF1F8AE
:1018C0006420B8FBF0F004012009642101FB1089B9
:1018D000A88900F4004040B1322000EBC900B0FB01
:1018E000F1F000F00700044308E0322000EB09109B
:1018F0006421B0FBF1F000F00F0004432C8106B02E
:10190000BDE8F0874FF41651016000218180C1804D
:1019100001810C21418100218181704710B502466F
:101920000020108A4FF2FF0318400B884C88234395
:101930008C882343CC8823431843108210BD002198
:10194000018041808180C180704721B1828942F449
:101950000052828104E082894DF6FF731A40828131
:101960007047F0B50346002400260025002040F60D
:101970006A17B94200D100BF1846C1F3421401F002
:101980001F06012707FA06F5012C01D10C3004E0EF
:10199000022C01D1103000E014301AB107682F4337
:1019A000076002E00768AF430760F0BD1AB1838AA1
:1019B0000B43838202E0838A8B4383827047028ACF
:1019C0004FF6F0731A400282028A0A43028270477D
:1019D00082894FF2FF731A40828182890A43828191
:1019E000704721B1828942F00202828104E082893B
:1019F0004FF6FD731A4082817047028A4FF6DF73FB
:101A00001A400282028A0A430282704721B1028A86
:101A100042F48042028204E0028A4BF6FF731A40CD
:101A200002827047C1F308028280704701468888AD
:101A3000C0F308007047818941F00101818170473E
:101A4000028BD2B20283028B42EA012202837047E8
:101A5000028B02F47F420283028B0A4302837047A7
:101A600021B1828A42F02002828204E0828A4FF60B
:101A7000DF731A408282704721B1828A42F01002DD
:101A8000828204E0828A4FF6EF731A4082827047A6
:101A900021B1828A42F00802828204E0828A4FF6F3
:101AA000F7731A408282704721B1828942F4004262
:101AB000828103E08289C2F30E028281704721B1E4
:101AC000828A42F40062828204E0828A4FF2FF73CB
:101AD0001A4082827047828A4FF6FB731A408282D4
:101AE000828A0A438282704721B1828A42F00202CE
:101AF000828204E0828A4FF6FD731A408282704728
:101B000002460020B1F5007F00D100BF13880B40D2
:101B10000BB1012000E00020704701F40072B2F523
:101B2000007F00D100BFCA430280704770B50246F3
:101B3000002400230025002040F66A16B14200D19F
:101B400000BFC1F3421501F01F03012606FA03F39B
:101B5000012D02D19689334006E0022D02D1168A6A
:101B6000334001E0968A33400C12012606FA04F451
:101B70001688344013B10CB1012000E0002070BD84
:101B800010B50022002340F66A14A14200D100BF24
:101B90000A1201249440A3B2DC43048010BD00006B
:101BA000003801400044004000480040004C004024
:101BB00000500040704700000FB4044910B503AA5C
:101BC000029800F013F910BC5DF814FB4C000020E3
:101BD0002DE9F0410E460446002020622046E168CF
:101BE000884730B3252805D0D4E901219047206AE1
:101BF000401CF2E7E168204600278847050018D01E
:101C0000A5F14100192802D820354FF4006732466B
:101C1000294620462760FEF7C5FA40B1012804D0C6
:101C2000F61D26F007060836D8E7361DD6E7284603
:101C3000DAE7206ABDE8F08170B50C460546012A56
:101C400005D02878800600D5EA69002302E0012348
:101C500005E05B1C934202D2E05C0028F9D1A86940
:101C6000E618C01AA861286A184428622846AFF30B
:101C7000008004E0D5E9012114F8010B9047B4423B
:101C8000F8D32846AFF3008070BD00002DE9F04185
:101C90000646002410687529314616A510D0AFF30A
:101CA0000080002802DA404213A507E031688A0765
:101CB00001D512A502E0490704D511A5012401E0D0
:101CC000AFF3008000210A2206F1240709E0B0FBEF
:101CD000F2FCB0FBF2F302FB1C00303078541846E3
:101CE000491C0028F3D123462A463046BDE8F0417E
:101CF00000F00CB8000000002D0000002B000000D8
:101D00002000000070477047704770472DE9F0478A
:101D10000D4699469246044600F12408016888065B
:101D200004D5E06921F01001216000E00120A84203
:101D300001DD471B00E00027A1697A1902EB0900C9
:101D4000081AA0612078C00602D42046AFF30080B4
:101D5000002608E0D4E901211AF806009047206A1D
:101D6000401C761C20624E45F4DB2078C0060AD564
:101D70002046AFF3008006E0D4E9012130209047EF
:101D8000206A401C2062381EA7F10107F4DC07E03E
:101D9000D4E9012118F805009047206A401C206210
:101DA000281EA5F10105F3DC2046AFF30080207862
:101DB000000602D50220BDE8F0870120FBE710B540
:101DC000436913B1AFF3008001E0FFF735FF012055
:101DD00010BD127800F124010A7000224A7001221D
:101DE000EDE711684FF0FF32E9E70000074B70B5EF
:101DF0000D467B4400F011F80446284600F020F818
:101E000010B14FF0FF3070BD204670BD73EEFFFF84
:101E100001694A1C02610878704700B58FB0CDE9AE
:101E200001310021059105497944CDE9031011469E
:101E30006846FFF7CDFE0FB000BD0000E5FFFFFFD5
:101E4000007B00F080007047754600F029F8AE4630
:101E500005006946534620F00700854618B020B5B6
:101E6000FFF7A4F8BDE820404FF000064FF0000750
:101E70004FF000084FF0000B21F00701AC46ACE832
:101E8000C009ACE8C009ACE8C009ACE8C0098D469F
:101E900070470446AFF300802046FEF798F9000033
:101EA00000487047BC000020C81E00080000002049
:101EB0009C0000006C010008641F00089C000020CA
:101EC00084060000880100080000000000000000F7
:101ED00000000000030070616765203200706167D8
:101EE000652033007061676520340070616765208C
:101EF00036007061676520380070616765203900C1
:101F000000A24A04000000000000000001020304D7
:101F1000060708090000000000EF01FFFFFFFF01B6
:101F20000003010005010004020100080100040291
:101F30000200080100030500090100060601010076
:101F4000031D00210100080401000003A100B200EC
:101F5000000000010203040102030406070809024D
:041F6000040608006B
:0400000508000131BD
:00000001FF
